:100000000C94D8000C9400010C9400010C94000195
:100010000C9400010C9400010C9400010C9400015C
:100020000C9400010C9400010C9400010C9400014C
:100030000C9400010C9400010C9400010C9400013C
:100040000C94E1070C9400010C94AF070C94890701
:100050000C9400010C9400010C9400010C9400011C
:100060000C9400010C940001494E505554004F551A
:1000700054505554004E4F5F444953504C41595FC2
:10008000434C4541523D3100444154415F434F4F41
:100090004C444F574E3D30004F55545F434F4F4CEB
:1000A000444F574E3D300050414745535550504FF7
:1000B00052543D310055495F545950453D30004937
:1000C0005347454E455249433D3100415554484FF1
:1000D000523D64393233373934336637353936383F
:1000E000643831653132616666313261383561328A
:1000F000343000352E300032004346542D4C414EF2
:1001000044494E472047454152204C4556455200F0
:100110007B65623664626336642D613137392D3414
:100120003631392D383261612D663037393036320B
:1001300030396663647D005350414400415454415A
:100140004348494E472043414C4C4241434B532185
:100150000000000000250028002B00000000002403
:100160000027002A000000000023002600290004C8
:10017000040404040404040202020202020303034E
:100180000303030102040810204080010204081048
:1001900020010204081020000000080002010000F5
:1001A0000304070000000000000000002B08F20B11
:1001B00011241FBECFEFD8E0DEBFCDBF25E0A6E102
:1001C000B2E001C01D92A23DB207E1F712E0A0E04B
:1001D000B1E0E4E2FEE102C005900D92A631B10764
:1001E000D9F710E0C7EDD0E004C02197FE010E94CE
:1001F000040DC63DD107C9F70E94F3080C94050F02
:100200000C940000AC011092170390916705809147
:100210006605FA01BF01641B750B2091170330813D
:1002200030931703931304C0921302C01092170364
:100230003081311104C0921721F0CB010895381795
:10024000D1F33196E7CF0F931F93CF93DF93809134
:100250005B05882309F446C0D0E0C0E0813029F472
:1002600082E080935B05CBE1D3E080915C0588233D
:1002700041F1209721F4C0916005D09161058E0174
:10028000CE010E940201892B29F42196F801808178
:100290008111F5CFF8018081882309F1C8010E94FE
:1002A0000201F801E80FF91F8081882311F0108204
:1002B0003196F0936105E093600510935F0500931C
:1002C0005E0580915E0590915F05892B59F081E074
:1002D00080935C05DF91CF911F910F91089510E0FD
:1002E00000E0EBCF80E0F6CFDC01ED91FC910190D6
:1002F000F081E02D0994EF92FF920F931F93CF931B
:10030000DF93209112032223E9F08C0160916605AE
:1003100080916305909164050E947401E0906305EB
:10032000F0906405E801FE016491662359F0D7015D
:10033000ED91FC910190F081E02DC7010995219686
:10034000892B89F7DF91CF911F910F91FF90EF904B
:100350000895CF93DF93209112032223D1F0EC0173
:100360006091660580916305909164050E94740117
:1003700080916305909164054C815D8168817981EC
:10038000DC01ED91FC910280F381E02DDF91CF91B2
:100390000994DF91CF910895AF92BF92CF92DF92EF
:1003A000EF92FF920F931F93CF93DF936C017B012A
:1003B0008B01040F151FEB015E01AE18BF08C017BB
:1003C000D10759F06991D601ED91FC910190F0812E
:1003D000E02DC6010995892B79F7C501DF91CF91F1
:1003E0001F910F91FF90EF90DF90CF90BF90AF9053
:1003F0000895FC01538D448D252F30E0842F90E02B
:10040000821B930B541710F0CF960895019708950F
:10041000FC01918D828D981761F0A28DAE0FBF2FD8
:10042000B11D5D968C91928D9F5F9F73928F90E02E
:1004300008958FEF9FEF0895FC01918D828D98179D
:1004400031F0828DE80FF11D858D90E008958FEFDA
:100450009FEF0895FC01918D228D892F90E0805CA3
:100460009F4F821B91098F739927089585E792E02A
:100470000E942A0221E0892B09F420E0822F0895AE
:1004800080E090E0892B29F00E94360281110C94C3
:1004900000000895FC01A48DA80FB92FB11DA35A27
:1004A000BF4F2C91848D90E001968F739927848F94
:1004B000A689B7892C93A089B1898C9183708064B7
:1004C0008C93938D848D981306C00288F389E02D58
:1004D00080818F7D80830895EF92FF920F931F9309
:1004E000CF93DF93EC0181E0888F9B8D8C8D9813E7
:1004F0001AC0E889F989808185FF15C09FB7F894F3
:10050000EE89FF896083E889F9898081837080643E
:1005100080839FBF81E090E0DF91CF911F910F9189
:10052000FF90EF900895F62E0B8D10E00F5F1F4F98
:100530000F731127E02E8C8D8E110CC00FB607FCA7
:10054000FACFE889F989808185FFF5CFCE010E9435
:100550004A02F1CFEB8DEC0FFD2FF11DE35AFF4F57
:10056000F0829FB7F8940B8FEA89FB8980818062C3
:10057000CFCFCF93DF93EC01888D8823B9F0AA8980
:10058000BB89E889F9898C9185FD03C0808186FD4E
:100590000DC00FB607FCF7CF8C9185FFF2CF80819D
:1005A00085FFEDCFCE010E944A02E9CFDF91CF91C6
:1005B0000895833081F028F4813099F08230A9F0D9
:1005C00008958730A9F08830C9F08430B1F4809163
:1005D00080008F7D03C0809180008F7780938000A2
:1005E000089584B58F7784BD089584B58F7DFBCF42
:1005F0008091B0008F778093B00008958091B00013
:100600008F7DF9CF1F93CF93DF93282F30E0F9012F
:10061000E956FE4F8491F901ED57FE4FD491F9014F
:10062000E159FE4FC491CC23A9F0162F81110E94ED
:10063000D902EC2FF0E0EE0FFF1FEF5AFE4FA5910D
:10064000B4918FB7F894EC91111108C0D095DE23C6
:10065000DC938FBFDF91CF911F910895DE2BF8CFF0
:100660003FB7F8948091170290911802A091190257
:10067000B0911A0226B5A89B05C02F3F19F001962C
:10068000A11DB11D3FBFBA2FA92F982F8827BC01EC
:10069000CD01620F711D811D911D42E0660F771F14
:1006A000881F991F4A95D1F708958F929F92AF9214
:1006B000BF92CF92DF92EF92FF924B015C010E94BA
:1006C00030036B017C010E9430036C197D098E0997
:1006D0009F09683E734081059105A8F321E0821AC5
:1006E0009108A108B10888EEC80E83E0D81EE11C6D
:1006F000F11C81149104A104B10429F7FF90EF903B
:10070000DF90CF90BF90AF909F908F9008950E9400
:100710002301882359F081E080935C0580935D0577
:1007200080915E0590915F050C94320C10925D05EE
:1007300060E070E0CB010895CF930E948703C62F3D
:100740000E948703672B682B692B29F061E08C2FAF
:10075000CF910C94020360E0FACFFC012481358133
:10076000232B49F068E371E0808191810E94F50EAE
:1007700021E0892B09F020E0822F0895FB010190F0
:100780000020E9F73197AF01461B570BDC01ED91D3
:10079000FC910280F381E02D09948091120388235B
:1007A000A1F06091650580916305909164050E94B8
:1007B000740180911A03882341F06CE371E0809109
:1007C0006305909164050E94BE0310921903109274
:1007D000120380E008958F929F92AF92BF92EF92A2
:1007E000FF920F931F93CF93DF93CDB7DEB7A197FF
:1007F0000FB6F894DEBF0FBECDBF7C01FA01CB016E
:1008000019A2223008F42AE08E010F5D1F4F822EBC
:10081000912CB12CA12CBF01A50194010E94E20CE6
:10082000F901CA016A300CF5605DD8016E938D0143
:10083000232B242B252B79F790E080E0109721F0D3
:10084000BD01C7010E94BE03A1960FB6F894DEBF9A
:100850000FBECDBFDF91CF911F910F91FF90EF9011
:10086000BF90AF909F908F900895695CDECFCF923C
:10087000DF92EF92FF92CF93DF936C016091660558
:1008800080916305909164050E947401C091630595
:10089000D09164050D2C000CEE08FF082AE0B7018A
:1008A000A601F7FE0CC06DE2CE010E947401442740
:1008B0005527BA014C195D096E097F092AE0CE015E
:1008C000DF91CF91FF90EF90DF90CF900C94EB03EE
:1008D00090911203911110C091E0909312039093A4
:1008E0001903482F50E070E060E02AE08091630532
:1008F000909164050C94EB030895CF93DF9390914E
:10090000120391111AC0EB010E9468048091120336
:10091000882379F060916605809163059091640564
:100920000E947401BE0180916305909164050E944C
:10093000BE03DF91CF910C94CD0380E0DF91CF9186
:10094000089580911203811119C083E00E94680408
:1009500080911203882381F0609166058091630580
:10096000909164050E9474016FE371E080916305CA
:10097000909164050E94BE030C94CD0308950F93DB
:100980001F93CF93DF93EC0188819981009759F0F1
:100990002A813B812617370730F081E0DF91CF9124
:1009A0001F910F9108958B016F5F7F4F0E942F0E53
:1009B000009759F0998388831B830A832C813D819A
:1009C000232B59F7FC011082E8CF80E0E7CFCF93CB
:1009D000DF93EC0188819981009711F00E94A60DA8
:1009E000198218821D821C821B821A82DF91CF918C
:1009F0000895EF92FF920F931F93CF93DF93EC0133
:100A00007B018A01BA010E94BF0481110BC0CE0193
:100A10000E94E704CE01DF91CF911F910F91FF90CB
:100A2000EF9008951D830C83B701888199810E94FE
:100A3000FE0EF0CFEF92FF920F931F93CF93DF93B1
:100A4000CDB7DEB762970FB6F894DEBF0FBECDBF4D
:100A50008C01CB01F801118210821382128215825F
:100A600014824AE09E012F5F3F4F7901B9010E9435
:100A7000590CF70101900020E9F73197AF014E19A9
:100A80005F09B701C8010E94F90462960FB6F89495
:100A9000DEBF0FBECDBFDF91CF911F910F91FF90B1
:100AA000EF900895FB01DC0111961C921E921396A3
:100AB0001C921E92129715961C921E9214978617DE
:100AC000970749F0608171816115710521F04481BA
:100AD00055810C94F9040895FC011182108213824F
:100AE000128215821482FB0101900020E9F73197F0
:100AF000AF01461B570B0C94F904FC0180819181D6
:100B0000009711F00C94A60D0895CF92DF92EF920A
:100B1000FF920F931F93CF93DF93CDB7DEB7689704
:100B20000FB6F894DEBF0FBECDBF0E94230188230D
:100B3000E1F181E080935C0580935D0500915E05A5
:100B400010915F056FE471E0C8010E94F50E892BDA
:100B500089F580E00E94680487E391E00E947B01B0
:100B600080E191E00E947B0189EF90E00E947B018F
:100B700087EF90E00E947B0183EF90E00E947B0171
:100B80008BEC90E00E947B010E94CD0368960FB62B
:100B9000F894DEBF0FBECDBFDF91CF911F910F91B3
:100BA000FF90EF90DF90CF90089510925D0510E0D8
:100BB00000E0C8CF64E571E0C8010E94F50E892B02
:100BC00009F040C080E00E946804809112038823ED
:100BD00081F06091660580916305909164050E94A3
:100BE000740169E571E080916305909164050E944C
:100BF000BE030E9487036B017C018091120388234E
:100C000019F26091660580916305909164050E94D8
:100C1000740100916305109164052AE0B701A601F3
:100C2000F7FE0CC06DE2C8010E94740144275527ED
:100C3000BA014C195D096E097F092AE0C8010E94BA
:100C4000EB03A2CF6EE571E0C8010E94F50E892B7F
:100C500009F09CCF80E00E946804809112038823F1
:100C600081F06091660580916305909164050E9412
:100C7000740165E671E080916305909164050E94BE
:100C8000BE038FEB90E00E947B0185EB90E00E9419
:100C90007B0187EA90E00E947B0188E990E00E9456
:100CA0007B0188E890E00E947B0185E790E00E944C
:100CB0007B010E94CD036CE671E083E00E947D041D
:100CC00007E512E09EE1E92E91E0F92EC8010E94AD
:100CD000AD03882309F472C001E212E08EE0E82E31
:100CE00081E0F82EC8010E94AD038111CEC064E8F6
:100CF00071E0CE0143960E946C0569E871E0CE0177
:100D00000D960E946C05B801CE0107960E9452050F
:100D1000F701C190D1907F0180E00E9468048EE6C7
:100D200090E00E947B0180911203882319F0C60194
:100D30000E943704BE01695F7F4FCE0101960E9479
:100D40005205CE0101960E94A901CE0101960E9492
:100D50007D05BE01635F7F4FCE0101960E94520563
:100D6000CE0101960E94A901CE0101960E947D0547
:100D7000BE016D5E7F4FCE0101960E945205CE01ED
:100D800001960E94A901CE0101960E947D050E9454
:100D9000CD03CE0107960E947D05CE010D960E94DF
:100DA0007D05CE0143960E947D0565E070E080E000
:100DB00090E00E9455030A5F1F4F94CF68E771E0EF
:100DC000CE0143960E946C056DE771E0CE010D9651
:100DD0000E946C05B801CE0107960E945205F701EA
:100DE000C190D1907F0180E00E94680488E690E085
:100DF0000E947B0180911203882319F0C6010E9492
:100E00003704BE01695F7F4FCE0101960E945205F3
:100E1000CE0101960E94A901CE0101960E947D0596
:100E2000BE01635F7F4FCE0101960E945205CE0145
:100E300001960E94A901CE0101960E947D05BE0186
:100E40006D5E7F4FCE0101960E945205CE01019644
:100E50000E94A901CE0101960E947D050E94CD034A
:100E6000CE0107960E947D05CE010D960E947D055C
:100E7000CE0143960E947D0565E070E080E090E041
:100E80000E9455030A5F1F4F21CF6EE571E080E09D
:100E90000E947D0479CE0F931F93CF93DF9300D0F0
:100EA00000D000D0CDB7DEB78C0188E00E94680486
:100EB000B801CE0101960E94520580911203882349
:100EC000B9F06091660580916305909164050E9478
:100ED000740180916305909164054D815E81698103
:100EE0007A81DC01ED91FC910280F381E02D09957E
:100EF000CE0101960E947D050E94CD0326960FB675
:100F0000F894DEBF0FBECDBFDF91CF911F910F913F
:100F100008951F920F920FB60F9211242F933F93B3
:100F20004F935F936F937F938F939F93AF93BF93F1
:100F3000EF93FF9385E792E00E944A02FF91EF91C1
:100F4000BF91AF919F918F917F916F915F914F91E1
:100F50003F912F910F900FBE0F901F9018951F92E9
:100F60000F920FB60F9211242F938F939F93EF93AD
:100F7000FF93E0918502F09186028081E0918B02DF
:100F8000F0918C0282FD1BC0908180918E028F5F58
:100F90008F7320918F02821741F0E0918E02F0E072
:100FA000EB58FD4F958F80938E02FF91EF919F91AB
:100FB0008F912F910F900FBE0F901F9018958081E9
:100FC000F4CF1F920F920FB60F9211242F933F93DD
:100FD0008F939F93AF93BF9380911D0290911E02B8
:100FE000A0911F02B09120023091160223E0230F3E
:100FF0002D3758F50196A11DB11D2093160280933F
:101000001D0290931E02A0931F02B09320028091B4
:10101000170290911802A0911902B0911A0201963C
:10102000A11DB11D8093170290931802A09319027D
:10103000B0931A02BF91AF919F918F913F912F91E1
:101040000F900FBE0F901F90189526E8230F029661
:10105000A11DB11DD2CF109278021092770288EEB6
:1010600093E0A0E0B0E08093790290937A02A0939D
:101070007B02B0937C028AE291E0909376028093A7
:10108000750285EC90E0909382028093810284EC5B
:1010900090E0909384028093830280EC90E09093A0
:1010A00086028093850281EC90E090938802809381
:1010B000870282EC90E090938A028093890286EC0A
:1010C00090E090938C0280938B0210928E0210928B
:1010D0008F02109290021092910210926905109264
:1010E000680585E792E0909364058093630510920C
:1010F0001A038CE2809366058BE3809365058FE28B
:101100008093670580E4809315038FE38093160333
:101110001092140310925F0510925E051092610503
:101120001092600581E080935C05EAE6F5E011929B
:10113000119285E0EE3CF807D1F7109219036DE8A3
:1011400071E087E592E00E946C0565E971E08DE54C
:1011500092E00E946C0568E971E083E692E00E94EB
:101160006C056CE971E089E692E00E946C0568E329
:1011700071E08FE692E00E946C0561EA71E081E225
:1011800092E00E946C056BEA71E087E292E00E94B7
:101190006C0564EB71E08DE292E00E946C0562ECFC
:1011A00071E083E392E00E946C0562ED71E089E3F7
:1011B00092E00E946C0560EE71E08FE392E00E9485
:1011C0006C0560EF71E085E492E00E946C056FEFC2
:1011D00071E08BE492E00E946C0568E371E081E5C8
:1011E00092E00C946C05CF93DF93CDB7DEB7629796
:1011F0000FB6F894DEBF0FBECDBF789484B5826081
:1012000084BD84B5816084BD85B5826085BD85B5AA
:10121000816085BD80916E00816080936E00109228
:1012200081008091810082608093810080918100A3
:101230008160809381008091800081608093800034
:101240008091B10084608093B1008091B000816092
:101250008093B00080917A00846080937A008091BE
:101260007A00826080937A0080917A008160809316
:101270007A0080917A00806880937A001092C10091
:10128000E0918502F091860282E08083E091810204
:10129000F09182021082E0918302F091840280E159
:1012A000808310928D02E0918902F0918A0286E09B
:1012B0008083E0918702F091880280818061808341
:1012C000E0918702F0918802808188608083E091BC
:1012D0008702F0918802808180688083E091870294
:1012E000F091880280818F7D80838091120381112B
:1012F00009C083E00E9468048CE391E00E947B01B6
:101300000E94CD0381EA94E090936905809368057B
:1013100025E835E030936B0520936A0590937105BD
:10132000809370058CE993E0909377058093760520
:1013300010921C0210921B0216E0E0901B02F0902B
:101340001C021E9DC0011F9D900D1124895A9D4FA6
:101350000E94AD0381113BC0F701EE0FFF1FE25E5B
:10136000FE4F808191819927FC01ED57FE4F24911A
:1013700081599E4FFC0184918823C9F090E0880F29
:10138000991FFC01E55AFE4F45915491FC01EF5A1B
:10139000FE4FA591B4919FB7F894FA013081822F46
:1013A000809583238083EC912E2B2C939FBF80917B
:1013B0001B0290911C02019690931C0280931B02C9
:1013C00065E070E080E090E00E945503B6CF109297
:1013D0001C0210921B0216E0E0901B02F0901C020F
:1013E0001E9DC0011F9D900D11248F5D9D4F0E9479
:1013F000AD03811140C0F701EE0FFF1FE25FFE4F0A
:10140000808191819927FC01ED57FE4F24918159EC
:101410009E4FFC018491882399F090E0880F991FDA
:10142000FC01E55AFE4FA591B491FC01EF5AFE4F25
:10143000859194918FB7F894EC91E22BEC938FBF48
:10144000E0901B02F0901C02F701EE0FFF1FE25F1D
:10145000FE4F60E080810E940203FFEFEF1AFF0A57
:10146000F0921C02E0921B0265E070E080E090E0E8
:101470000E945503B1CF10921C0210921B027724D8
:10148000739437E5A32E32E0B32E40E0C42E41E042
:10149000D42E5EE1852E51E0952EC5010E94AD034C
:1014A0008111A3C0D401ED90FD904D019701332728
:1014B000F901E956FE4F8491F901ED57FE4F149161
:1014C000F901E159FE4F0491002309F442C0811152
:1014D0000E94D902E02FF0E0EE0FFF1FEB59FE4F04
:1014E000A591B491EC911E2391E080E009F490E085
:1014F000092F182FF601808191818017910709F437
:101500005FC0B701CE010D960115110529F10E94AA
:101510001A05BE01635F7F4FCE0107960E945205F8
:10152000EB84FC84F2E0EF0EF11CB701CE010796CC
:101530000E94BF04882329F12F8138858B859C85E3
:1015400060E172E0820F931F0E94FE0EFC86EB8624
:101550001CC010E000E0CECF0E941A05BE01635F00
:101560007F4FCE0107960E945205EB84FC8422E057
:10157000E20EF11CB701CE0107960E94BF04811153
:101580002DC0CE0107960E94E704BE01695F7F4F20
:10159000CE0101960E94520580911203811104C070
:1015A000CE0101960E944B07CE0101960E947D0557
:1015B000CE0107960E947D05CE010D960E947D0505
:1015C000D6010D931D936D0164E170E080E090E021
:1015D0000E945503B6E0AB0EB11C5FCF2F8138855A
:1015E0008B859C8563E172E0ADCF809119038111F9
:1015F000E5C08091630590916405DC01ED91FC915B
:101600000084F185E02D0995892B09F4D7C08091DC
:10161000630590916405DC01ED91FC910084F185F6
:10162000E02D099500E012E08115924064F480916C
:10163000630590916405DC01ED91FC910084F185D6
:10164000E02D09958C01E0906305F09064059BE521
:10165000C92E93E0D92E5601912C812C081519051D
:10166000B9F12FB7F89480911D0290911E02A091BC
:101670001F02B09120022FBFF70180879187A287B8
:10168000B387D701ED91FC910284F385E02DC7016A
:10169000099597FFA0C02FB7F89480911D029091F3
:1016A0001E02A0911F02B09120022FBFF7014085BA
:1016B000518562857385841B950BA60BB70B4481FE
:1016C00055816681778184179507A607B707C8F209
:1016D000F12CE12C0E151F0509F487CFD6019D9141
:1016E0006D0110925B05309167052091180390936E
:1016F0001803931304C0921302C010921803809130
:101700001403E82FF0E040916505EE5EFC4F941362
:101710003DC03217D9F11186882321F070925B0504
:10172000109218031092140310925F0510925E0538
:10173000109261051092600570925C05B0905B0597
:10174000B1E0BB1237C00E942301882341F1B0925F
:101750005C05B0925D0580915E0590915F050E94E9
:10176000140C809313038233F8F420915D05222337
:10177000D9F0FC01FF27EE0FFF1FE659FA4F019049
:10178000F081E02D309781F0099514C091878F5F2B
:101790008093140390911603891720F6CFCF1092EF
:1017A0005D0590E080E0DDCFE0916805F09169058E
:1017B000309751F7EFEFEE1AFE0A8CCF80E090E001
:1017C000892B09F45ECE0E943602882309F459CE93
:1017D0000E94000056CED5018D935D01BFEF8B1A9C
:1017E0009B0A3CCFCF93DF93C7E5D2E02697CE018B
:1017F0000E947D0582E0C132D807C1F78FE692E0F2
:101800000E947D0589E692E00E947D0583E692E0D4
:101810000E947D058DE592E00E947D0587E592E0BE
:10182000DF91CF910C947D05FC0188279927E894DE
:1018300021912032E9F3293010F02E30C8F32B32F9
:1018400041F02D3239F4689404C00E94790C820F63
:10185000911D219120532A30C0F31EF4909581955B
:101860009F4F08951F93FC0199278827BC01E89496
:1018700011911032E9F3193010F01E30C8F31B3209
:1018800051F01D3249F4689406C00E94640C610F47
:10189000711D811D911D119110531A30B0F33EF44A
:1018A00090958095709561957F4F8F4F9F4F1F91B9
:1018B0000895BB274A3031F4992322F4BDE2909574
:1018C00081959F4F0C94820C592F482F372F262F2C
:1018D000660F771F881F991F660F771F881F991F34
:1018E000620F731F841F951F660F771F881F991F34
:1018F00008957AE0979F902D879F802D910D112458
:101900000895BB27FB015527AA27880F991FAA1FF7
:10191000A41710F0A41B83955051B9F7A05DAA330A
:1019200008F0A95DA193009779F7B111B1931192D5
:10193000CB010C949B0CDC01FC01672F7191772388
:10194000E1F7329704C07C916D9370836291AE177A
:10195000BF07C8F308952F923F924F925F926F9204
:101960007F928F929F92AF92BF92CF92DF92EF922F
:10197000FF920F931F93CF93DF93CDB7DEB7CA1BB0
:10198000DB0B0FB6F894DEBF0FBECDBF09942A88DB
:10199000398848885F846E847D848C849B84AA8483
:1019A000B984C884DF80EE80FD800C811B81AA8110
:1019B000B981CE0FD11D0FB6F894DEBF0FBECDBFDB
:1019C000ED010895A1E21A2EAA1BBB1BFD010DC05B
:1019D000AA1FBB1FEE1FFF1FA217B307E407F507DF
:1019E00020F0A21BB30BE40BF50B661F771F881FBB
:1019F000991F1A9469F760957095809590959B0151
:101A0000AC01BD01CF010895EE0FFF1F0590F491C9
:101A1000E02D09940F931F93CF93DF9382309105AC
:101A200010F482E090E0E091D005F091D10530E033
:101A300020E0B0E0A0E0309799F42115310509F4D9
:101A40004AC0281B390B24303105D8F58A819B8187
:101A50006115710589F1FB0193838283FE0111C039
:101A6000408151810281138148175907E0F04817DE
:101A7000590799F4109761F012960C9312971396E8
:101A80001C933296CF01DF91CF911F910F91089552
:101A90000093D0051093D105F4CF2115310551F0F5
:101AA0004217530738F0A901DB019A01BD01DF019C
:101AB000F801C1CFEF01F9CF9093D1058093D00504
:101AC000CDCFFE01E20FF31F819391932250310994
:101AD00039832883D7CF2091CE053091CF05232B92
:101AE00041F420910A0130910B013093CF052093EE
:101AF000CE0520910801309109012115310541F4ED
:101B00002DB73EB740910C0150910D01241B350BB0
:101B1000E091CE05F091CF05E217F307A0F42E1B5C
:101B20003F0B2817390778F0AC014E5F5F4F241741
:101B3000350748F04E0F5F1F5093CF054093CE05F9
:101B4000819391939FCFF0E0E0E09CCFCF93DF9320
:101B50000097E9F0FC01329713821282A091D00520
:101B6000B091D105ED0130E020E01097A1F4208183
:101B70003181820F931F2091CE053091CF05281718
:101B8000390709F061C0F093CF05E093CE05DF91EE
:101B9000CF910895EA01CE17DF07E8F54A815B810E
:101BA0009E0141155105B1F7E901FB83EA83499193
:101BB0005991C40FD51FEC17FD0761F48081918105
:101BC0000296840F951FE90199838883828193810E
:101BD0009B838A83F0E0E0E012968D919C911397AD
:101BE0000097B9F52D913C911197CD010296820F86
:101BF000931F2091CE053091CF052817390739F66C
:101C0000309751F51092D1051092D005B093CF05C1
:101C1000A093CE05BCCFD383C28340815181840F72
:101C2000951FC817D90761F44E5F5F4F888199816E
:101C3000480F591F518340838A819B8193838283FC
:101C40002115310509F0B0CFF093D105E093D0050F
:101C50009ECFFD01DC01C0CF13821282D7CFB0E04E
:101C6000A0E0E5E3FEE00C94AD0C8C01009751F48C
:101C7000CB010E940A0D8C01C801CDB7DEB7E0E1AF
:101C80000C94C90CFC01E60FF71F9C01225031098E
:101C9000E217F30708F49DC0D901CD91DC911197AB
:101CA000C617D70798F0C530D10530F3CE01049799
:101CB0008617970708F3C61BD70B2297C193D193BA
:101CC0006D937C93CF010E94A60DD6CF5B01AC1A19
:101CD000BD0A4C018C0E9D1EA091D005B091D1057E
:101CE000512C412CF12CE12C109731F58091CE052F
:101CF0009091CF058815990509F05CC046165706E6
:101D000008F058C08091080190910901009741F4B2
:101D10008DB79EB740910C0150910D01841B950B1E
:101D2000E817F90708F055C0F093CF05E093CE050A
:101D3000F90171836083A0CF8D919C9111971296C8
:101D40006C90129713967C901397A815B90559F5C6
:101D50006C0142E0C40ED11CCA14DB0420F1AC01BA
:101D60004A195B09DA011296159780F06282738234
:101D700051834083D9016D937C93E114F10471F098
:101D8000D7011396FC93EE93129776CF22968C0F81
:101D90009D1FF90191838083F301EFCFF093D1056B
:101DA000E093D00569CF4816590608F42C017D014F
:101DB000D3019ACFCB010E940A0D7C01009749F014
:101DC000AE01B8010E94EC0EC8010E94A60D870169
:101DD00053CF10E000E050CFFB01DC0102C00190C6
:101DE0000D9241505040D8F70895FB01DC018D91D0
:101DF000019080190110D9F3990B0895FB01DC01C2
:101E000001900D920020E1F7089510E0C7EDD0E0B9
:101E100004C0FE010E94040D2196C83DD107C9F7F8
:041E2000F894FFCF64
:101E2400FFFFFFFFFFFFFFFF0000D205800003005C
:101E34000C000B0007000A000900060008000E0051
:101E44000F0010001100000000006C02CC01F90129
:101E5400B9022A0208021C02454E44000D0A00552C
:101E64004E4B4E4F574E20434F4D4D414E4400492B
:101E74004E49540050494E4700504F4E4700434F7F
:101E84004E464947004F5054494F4E00434F4E462B
:101E9400494720444F4E4500535041445F535749EE
:101EA40054434800535041445F4C45440054524904
:101EB40047474552005550004F464600444F574E41
:101EC400004241434B4C494748540053454C454E0E
:101ED4004F4944004E4F53455F474541525F524579
:101EE40044004E4F53455F474541525F4752454575
:101EF4004E004C4546545F474541525F52454400AD
:101F04004C4546545F474541525F475245454E0054
:101F140052494748545F474541525F524544005235
:101F2400494748545F474541525F475245454E0033
:061F34002C30002C3100EE
:00000001FF
